{
  "address": "0x90fcd5f9956B55bbe25E037d42137259C4B43C5B",
  "_format": "hh-sol-artifact-1",
  "contractName": "EASWithReclaim",
  "sourceName": "contracts/EASWithReclaim.sol",
  "abi": [
    {
      "inputs": [
        {
          "internalType": "contract IEAS",
          "name": "_ieas",
          "type": "address"
        },
        {
          "internalType": "contract IReclaim",
          "name": "_reclaim",
          "type": "address"
        }
      ],
      "stateMutability": "nonpayable",
      "type": "constructor"
    },
    {
      "inputs": [
        {
          "components": [
            {
              "internalType": "bytes32",
              "name": "schema",
              "type": "bytes32"
            },
            {
              "components": [
                {
                  "internalType": "address",
                  "name": "recipient",
                  "type": "address"
                },
                {
                  "internalType": "uint64",
                  "name": "expirationTime",
                  "type": "uint64"
                },
                {
                  "internalType": "bool",
                  "name": "revocable",
                  "type": "bool"
                },
                {
                  "internalType": "bytes32",
                  "name": "refUID",
                  "type": "bytes32"
                },
                {
                  "internalType": "bytes",
                  "name": "data",
                  "type": "bytes"
                },
                {
                  "internalType": "uint256",
                  "name": "value",
                  "type": "uint256"
                }
              ],
              "internalType": "struct AttestationRequestData",
              "name": "data",
              "type": "tuple"
            }
          ],
          "internalType": "struct AttestationRequest",
          "name": "request",
          "type": "tuple"
        },
        {
          "components": [
            {
              "components": [
                {
                  "internalType": "string",
                  "name": "provider",
                  "type": "string"
                },
                {
                  "internalType": "string",
                  "name": "parameters",
                  "type": "string"
                },
                {
                  "internalType": "string",
                  "name": "context",
                  "type": "string"
                }
              ],
              "internalType": "struct Claims.ClaimInfo",
              "name": "claimInfo",
              "type": "tuple"
            },
            {
              "components": [
                {
                  "components": [
                    {
                      "internalType": "bytes32",
                      "name": "identifier",
                      "type": "bytes32"
                    },
                    {
                      "internalType": "address",
                      "name": "owner",
                      "type": "address"
                    },
                    {
                      "internalType": "uint32",
                      "name": "timestampS",
                      "type": "uint32"
                    },
                    {
                      "internalType": "uint32",
                      "name": "epoch",
                      "type": "uint32"
                    }
                  ],
                  "internalType": "struct Claims.CompleteClaimData",
                  "name": "claim",
                  "type": "tuple"
                },
                {
                  "internalType": "bytes[]",
                  "name": "signatures",
                  "type": "bytes[]"
                }
              ],
              "internalType": "struct Claims.SignedClaim",
              "name": "signedClaim",
              "type": "tuple"
            }
          ],
          "internalType": "struct IReclaim.Proof",
          "name": "proof",
          "type": "tuple"
        }
      ],
      "name": "attest",
      "outputs": [
        {
          "internalType": "bytes32",
          "name": "",
          "type": "bytes32"
        }
      ],
      "stateMutability": "nonpayable",
      "type": "function"
    },
    {
      "inputs": [],
      "name": "ieas",
      "outputs": [
        {
          "internalType": "contract IEAS",
          "name": "",
          "type": "address"
        }
      ],
      "stateMutability": "view",
      "type": "function"
    },
    {
      "inputs": [],
      "name": "reclaim",
      "outputs": [
        {
          "internalType": "contract IReclaim",
          "name": "",
          "type": "address"
        }
      ],
      "stateMutability": "view",
      "type": "function"
    }
  ],
  "bytecode": "0x608060405234801561001057600080fd5b506040516106aa3803806106aa83398101604081905261002f91610078565b600080546001600160a01b039384166001600160a01b031991821617909155600180549290931691161790556100b2565b6001600160a01b038116811461007557600080fd5b50565b6000806040838503121561008b57600080fd5b825161009681610060565b60208401519092506100a781610060565b809150509250929050565b6105e9806100c16000396000f3fe608060405234801561001057600080fd5b50600436106100415760003560e01c806380e9071b146100465780638cee6dd114610076578063d1d7beb814610089575b600080fd5b600154610059906001600160a01b031681565b6040516001600160a01b0390911681526020015b60405180910390f35b600054610059906001600160a01b031681565b61009c6100973660046101b1565b6100aa565b60405190815260200161006d565b6001546040516354b0734f60e11b81526000916001600160a01b03169063a960e69e906100db9085906004016103e9565b6020604051808303816000875af11580156100fa573d6000803e3d6000fd5b505050506040513d601f19601f8201168201806040525081019061011e91906104b4565b5060005460405163f17325e760e01b81526001600160a01b039091169063f17325e79061014f9086906004016104dc565b6020604051808303816000875af115801561016e573d6000803e3d6000fd5b505050506040513d601f19601f82011682018060405250810190610192919061059a565b9392505050565b6000604082840312156101ab57600080fd5b50919050565b600080604083850312156101c457600080fd5b823567ffffffffffffffff808211156101dc57600080fd5b6101e886838701610199565b935060208501359150808211156101fe57600080fd5b5061020b85828601610199565b9150509250929050565b6000808335601e1984360301811261022c57600080fd5b830160208101925035905067ffffffffffffffff81111561024c57600080fd5b80360382131561025b57600080fd5b9250929050565b81835281816020850137506000828201602090810191909152601f909101601f19169091010190565b60008235609e198336030181126102a157600080fd5b90910192915050565b80356001600160a01b03811681146102c157600080fd5b919050565b803563ffffffff811681146102c157600080fd5b81835260006020808501808196508560051b810191508460005b8781101561032a57828403895261030b8288610215565b610316868284610262565b9a87019a95505050908401906001016102f4565b5091979650505050505050565b803582526001600160a01b0361034f602083016102aa565b1660208301526000610363604083016102c6565b63ffffffff80821660408601528061037d606086016102c6565b16606086015250506080820135601e1983360301811261039c57600080fd5b820160208101903567ffffffffffffffff8111156103b957600080fd5b8060051b36038213156103cb57600080fd5b60a060808601526103e060a0860182846102da565b95945050505050565b6020815260008235605e1984360301811261040357600080fd5b6040602084015283016104168180610215565b60608086015261042a60c086018284610262565b91505061043a6020830183610215565b605f1980878503016080880152610452848385610262565b93506104616040860186610215565b95509250808785030160a0880152505061047c828483610262565b9250505061048d602085018561028b565b838203601f190160408501526103e08282610337565b80151581146104b157600080fd5b50565b6000602082840312156104c657600080fd5b8151610192816104a3565b80356102c1816104a3565b60208152813560208201526000602083013560be1984360301811261050057600080fd5b60408381015283016001600160a01b03610519826102aa565b166060840152602081013567ffffffffffffffff811680821461053b57600080fd5b60808501525061054d604082016104d1565b151560a0840152606081013560c084015261056b6080820182610215565b60c060e086015261058161012086018284610262565b91505060a0820135610100850152809250505092915050565b6000602082840312156105ac57600080fd5b505191905056fea264697066735822122070462156b678464cea8a0a716df8178002f96f7f1281c60901946ea394ec731c64736f6c63430008140033",
  "linkReferences": {},
  "deployedLinkReferences": {}
}