{
  "_format": "hh-sol-artifact-1",
  "contractName": "IdentityWithReclaim",
  "sourceName": "contracts/IdentityWithReclaim.sol",
  "abi": [
    {
      "anonymous": false,
      "inputs": [
        {
          "indexed": false,
          "internalType": "uint8",
          "name": "version",
          "type": "uint8"
        }
      ],
      "name": "Initialized",
      "type": "event"
    },
    {
      "anonymous": false,
      "inputs": [
        {
          "indexed": true,
          "internalType": "address",
          "name": "previousOwner",
          "type": "address"
        },
        {
          "indexed": true,
          "internalType": "address",
          "name": "newOwner",
          "type": "address"
        }
      ],
      "name": "OwnershipTransferred",
      "type": "event"
    },
    {
      "inputs": [
        {
          "internalType": "uint256",
          "name": "hashIndex",
          "type": "uint256"
        },
        {
          "internalType": "uint256",
          "name": "hashValue",
          "type": "uint256"
        },
        {
          "components": [
            {
              "components": [
                {
                  "internalType": "string",
                  "name": "provider",
                  "type": "string"
                },
                {
                  "internalType": "string",
                  "name": "parameters",
                  "type": "string"
                },
                {
                  "internalType": "string",
                  "name": "context",
                  "type": "string"
                }
              ],
              "internalType": "struct Claims.ClaimInfo",
              "name": "claimInfo",
              "type": "tuple"
            },
            {
              "components": [
                {
                  "components": [
                    {
                      "internalType": "bytes32",
                      "name": "identifier",
                      "type": "bytes32"
                    },
                    {
                      "internalType": "address",
                      "name": "owner",
                      "type": "address"
                    },
                    {
                      "internalType": "uint32",
                      "name": "timestampS",
                      "type": "uint32"
                    },
                    {
                      "internalType": "uint32",
                      "name": "epoch",
                      "type": "uint32"
                    }
                  ],
                  "internalType": "struct Claims.CompleteClaimData",
                  "name": "claim",
                  "type": "tuple"
                },
                {
                  "internalType": "bytes[]",
                  "name": "signatures",
                  "type": "bytes[]"
                }
              ],
              "internalType": "struct Claims.SignedClaim",
              "name": "signedClaim",
              "type": "tuple"
            }
          ],
          "internalType": "struct IReclaim.Proof",
          "name": "reclaimProof",
          "type": "tuple"
        }
      ],
      "name": "addClaimHashAndTransit",
      "outputs": [],
      "stateMutability": "nonpayable",
      "type": "function"
    },
    {
      "inputs": [
        {
          "components": [
            {
              "internalType": "uint256",
              "name": "schemaHash",
              "type": "uint256"
            },
            {
              "internalType": "uint8",
              "name": "idPosition",
              "type": "uint8"
            },
            {
              "internalType": "bool",
              "name": "expirable",
              "type": "bool"
            },
            {
              "internalType": "bool",
              "name": "updatable",
              "type": "bool"
            },
            {
              "internalType": "uint8",
              "name": "merklizedRootPosition",
              "type": "uint8"
            },
            {
              "internalType": "uint32",
              "name": "version",
              "type": "uint32"
            },
            {
              "internalType": "uint256",
              "name": "id",
              "type": "uint256"
            },
            {
              "internalType": "uint64",
              "name": "revocationNonce",
              "type": "uint64"
            },
            {
              "internalType": "uint64",
              "name": "expirationDate",
              "type": "uint64"
            },
            {
              "internalType": "uint256",
              "name": "merklizedRoot",
              "type": "uint256"
            },
            {
              "internalType": "uint256",
              "name": "indexDataSlotA",
              "type": "uint256"
            },
            {
              "internalType": "uint256",
              "name": "indexDataSlotB",
              "type": "uint256"
            },
            {
              "internalType": "uint256",
              "name": "valueDataSlotA",
              "type": "uint256"
            },
            {
              "internalType": "uint256",
              "name": "valueDataSlotB",
              "type": "uint256"
            }
          ],
          "internalType": "struct ClaimBuilder.ClaimData",
          "name": "claimData",
          "type": "tuple"
        }
      ],
      "name": "buildClaim",
      "outputs": [
        {
          "internalType": "uint256[8]",
          "name": "",
          "type": "uint256[8]"
        }
      ],
      "stateMutability": "pure",
      "type": "function"
    },
    {
      "inputs": [],
      "name": "calcIdentityState",
      "outputs": [
        {
          "internalType": "uint256",
          "name": "",
          "type": "uint256"
        }
      ],
      "stateMutability": "view",
      "type": "function"
    },
    {
      "inputs": [
        {
          "internalType": "uint256",
          "name": "claimIndexHash",
          "type": "uint256"
        }
      ],
      "name": "getClaimProof",
      "outputs": [
        {
          "components": [
            {
              "internalType": "uint256",
              "name": "root",
              "type": "uint256"
            },
            {
              "internalType": "bool",
              "name": "existence",
              "type": "bool"
            },
            {
              "internalType": "uint256[]",
              "name": "siblings",
              "type": "uint256[]"
            },
            {
              "internalType": "uint256",
              "name": "index",
              "type": "uint256"
            },
            {
              "internalType": "uint256",
              "name": "value",
              "type": "uint256"
            },
            {
              "internalType": "bool",
              "name": "auxExistence",
              "type": "bool"
            },
            {
              "internalType": "uint256",
              "name": "auxIndex",
              "type": "uint256"
            },
            {
              "internalType": "uint256",
              "name": "auxValue",
              "type": "uint256"
            }
          ],
          "internalType": "struct SmtLib.Proof",
          "name": "",
          "type": "tuple"
        }
      ],
      "stateMutability": "view",
      "type": "function"
    },
    {
      "inputs": [
        {
          "internalType": "uint256",
          "name": "claimIndexHash",
          "type": "uint256"
        },
        {
          "internalType": "uint256",
          "name": "root",
          "type": "uint256"
        }
      ],
      "name": "getClaimProofByRoot",
      "outputs": [
        {
          "components": [
            {
              "internalType": "uint256",
              "name": "root",
              "type": "uint256"
            },
            {
              "internalType": "bool",
              "name": "existence",
              "type": "bool"
            },
            {
              "internalType": "uint256[]",
              "name": "siblings",
              "type": "uint256[]"
            },
            {
              "internalType": "uint256",
              "name": "index",
              "type": "uint256"
            },
            {
              "internalType": "uint256",
              "name": "value",
              "type": "uint256"
            },
            {
              "internalType": "bool",
              "name": "auxExistence",
              "type": "bool"
            },
            {
              "internalType": "uint256",
              "name": "auxIndex",
              "type": "uint256"
            },
            {
              "internalType": "uint256",
              "name": "auxValue",
              "type": "uint256"
            }
          ],
          "internalType": "struct SmtLib.Proof",
          "name": "",
          "type": "tuple"
        }
      ],
      "stateMutability": "view",
      "type": "function"
    },
    {
      "inputs": [],
      "name": "getClaimsTreeRoot",
      "outputs": [
        {
          "internalType": "uint256",
          "name": "",
          "type": "uint256"
        }
      ],
      "stateMutability": "view",
      "type": "function"
    },
    {
      "inputs": [],
      "name": "getId",
      "outputs": [
        {
          "internalType": "uint256",
          "name": "",
          "type": "uint256"
        }
      ],
      "stateMutability": "view",
      "type": "function"
    },
    {
      "inputs": [],
      "name": "getIsOldStateGenesis",
      "outputs": [
        {
          "internalType": "bool",
          "name": "",
          "type": "bool"
        }
      ],
      "stateMutability": "view",
      "type": "function"
    },
    {
      "inputs": [],
      "name": "getLatestPublishedClaimsRoot",
      "outputs": [
        {
          "internalType": "uint256",
          "name": "",
          "type": "uint256"
        }
      ],
      "stateMutability": "view",
      "type": "function"
    },
    {
      "inputs": [],
      "name": "getLatestPublishedRevocationsRoot",
      "outputs": [
        {
          "internalType": "uint256",
          "name": "",
          "type": "uint256"
        }
      ],
      "stateMutability": "view",
      "type": "function"
    },
    {
      "inputs": [],
      "name": "getLatestPublishedRootsRoot",
      "outputs": [
        {
          "internalType": "uint256",
          "name": "",
          "type": "uint256"
        }
      ],
      "stateMutability": "view",
      "type": "function"
    },
    {
      "inputs": [],
      "name": "getLatestPublishedState",
      "outputs": [
        {
          "internalType": "uint256",
          "name": "",
          "type": "uint256"
        }
      ],
      "stateMutability": "view",
      "type": "function"
    },
    {
      "inputs": [
        {
          "internalType": "uint64",
          "name": "revocationNonce",
          "type": "uint64"
        }
      ],
      "name": "getRevocationProof",
      "outputs": [
        {
          "components": [
            {
              "internalType": "uint256",
              "name": "root",
              "type": "uint256"
            },
            {
              "internalType": "bool",
              "name": "existence",
              "type": "bool"
            },
            {
              "internalType": "uint256[]",
              "name": "siblings",
              "type": "uint256[]"
            },
            {
              "internalType": "uint256",
              "name": "index",
              "type": "uint256"
            },
            {
              "internalType": "uint256",
              "name": "value",
              "type": "uint256"
            },
            {
              "internalType": "bool",
              "name": "auxExistence",
              "type": "bool"
            },
            {
              "internalType": "uint256",
              "name": "auxIndex",
              "type": "uint256"
            },
            {
              "internalType": "uint256",
              "name": "auxValue",
              "type": "uint256"
            }
          ],
          "internalType": "struct SmtLib.Proof",
          "name": "",
          "type": "tuple"
        }
      ],
      "stateMutability": "view",
      "type": "function"
    },
    {
      "inputs": [
        {
          "internalType": "uint64",
          "name": "revocationNonce",
          "type": "uint64"
        },
        {
          "internalType": "uint256",
          "name": "root",
          "type": "uint256"
        }
      ],
      "name": "getRevocationProofByRoot",
      "outputs": [
        {
          "components": [
            {
              "internalType": "uint256",
              "name": "root",
              "type": "uint256"
            },
            {
              "internalType": "bool",
              "name": "existence",
              "type": "bool"
            },
            {
              "internalType": "uint256[]",
              "name": "siblings",
              "type": "uint256[]"
            },
            {
              "internalType": "uint256",
              "name": "index",
              "type": "uint256"
            },
            {
              "internalType": "uint256",
              "name": "value",
              "type": "uint256"
            },
            {
              "internalType": "bool",
              "name": "auxExistence",
              "type": "bool"
            },
            {
              "internalType": "uint256",
              "name": "auxIndex",
              "type": "uint256"
            },
            {
              "internalType": "uint256",
              "name": "auxValue",
              "type": "uint256"
            }
          ],
          "internalType": "struct SmtLib.Proof",
          "name": "",
          "type": "tuple"
        }
      ],
      "stateMutability": "view",
      "type": "function"
    },
    {
      "inputs": [
        {
          "internalType": "uint256",
          "name": "id",
          "type": "uint256"
        },
        {
          "internalType": "uint64",
          "name": "nonce",
          "type": "uint64"
        }
      ],
      "name": "getRevocationStatus",
      "outputs": [
        {
          "components": [
            {
              "components": [
                {
                  "internalType": "uint256",
                  "name": "state",
                  "type": "uint256"
                },
                {
                  "internalType": "uint256",
                  "name": "claimsTreeRoot",
                  "type": "uint256"
                },
                {
                  "internalType": "uint256",
                  "name": "revocationTreeRoot",
                  "type": "uint256"
                },
                {
                  "internalType": "uint256",
                  "name": "rootOfRoots",
                  "type": "uint256"
                }
              ],
              "internalType": "struct IOnchainCredentialStatusResolver.IdentityStateRoots",
              "name": "issuer",
              "type": "tuple"
            },
            {
              "components": [
                {
                  "internalType": "uint256",
                  "name": "root",
                  "type": "uint256"
                },
                {
                  "internalType": "bool",
                  "name": "existence",
                  "type": "bool"
                },
                {
                  "internalType": "uint256[]",
                  "name": "siblings",
                  "type": "uint256[]"
                },
                {
                  "internalType": "uint256",
                  "name": "index",
                  "type": "uint256"
                },
                {
                  "internalType": "uint256",
                  "name": "value",
                  "type": "uint256"
                },
                {
                  "internalType": "bool",
                  "name": "auxExistence",
                  "type": "bool"
                },
                {
                  "internalType": "uint256",
                  "name": "auxIndex",
                  "type": "uint256"
                },
                {
                  "internalType": "uint256",
                  "name": "auxValue",
                  "type": "uint256"
                }
              ],
              "internalType": "struct IOnchainCredentialStatusResolver.Proof",
              "name": "mtp",
              "type": "tuple"
            }
          ],
          "internalType": "struct IOnchainCredentialStatusResolver.CredentialStatus",
          "name": "",
          "type": "tuple"
        }
      ],
      "stateMutability": "view",
      "type": "function"
    },
    {
      "inputs": [
        {
          "internalType": "uint256",
          "name": "id",
          "type": "uint256"
        },
        {
          "internalType": "uint256",
          "name": "state",
          "type": "uint256"
        },
        {
          "internalType": "uint64",
          "name": "nonce",
          "type": "uint64"
        }
      ],
      "name": "getRevocationStatusByIdAndState",
      "outputs": [
        {
          "components": [
            {
              "components": [
                {
                  "internalType": "uint256",
                  "name": "state",
                  "type": "uint256"
                },
                {
                  "internalType": "uint256",
                  "name": "claimsTreeRoot",
                  "type": "uint256"
                },
                {
                  "internalType": "uint256",
                  "name": "revocationTreeRoot",
                  "type": "uint256"
                },
                {
                  "internalType": "uint256",
                  "name": "rootOfRoots",
                  "type": "uint256"
                }
              ],
              "internalType": "struct IOnchainCredentialStatusResolver.IdentityStateRoots",
              "name": "issuer",
              "type": "tuple"
            },
            {
              "components": [
                {
                  "internalType": "uint256",
                  "name": "root",
                  "type": "uint256"
                },
                {
                  "internalType": "bool",
                  "name": "existence",
                  "type": "bool"
                },
                {
                  "internalType": "uint256[]",
                  "name": "siblings",
                  "type": "uint256[]"
                },
                {
                  "internalType": "uint256",
                  "name": "index",
                  "type": "uint256"
                },
                {
                  "internalType": "uint256",
                  "name": "value",
                  "type": "uint256"
                },
                {
                  "internalType": "bool",
                  "name": "auxExistence",
                  "type": "bool"
                },
                {
                  "internalType": "uint256",
                  "name": "auxIndex",
                  "type": "uint256"
                },
                {
                  "internalType": "uint256",
                  "name": "auxValue",
                  "type": "uint256"
                }
              ],
              "internalType": "struct IOnchainCredentialStatusResolver.Proof",
              "name": "mtp",
              "type": "tuple"
            }
          ],
          "internalType": "struct IOnchainCredentialStatusResolver.CredentialStatus",
          "name": "",
          "type": "tuple"
        }
      ],
      "stateMutability": "view",
      "type": "function"
    },
    {
      "inputs": [],
      "name": "getRevocationsTreeRoot",
      "outputs": [
        {
          "internalType": "uint256",
          "name": "",
          "type": "uint256"
        }
      ],
      "stateMutability": "view",
      "type": "function"
    },
    {
      "inputs": [
        {
          "internalType": "uint256",
          "name": "claimsTreeRoot",
          "type": "uint256"
        }
      ],
      "name": "getRootProof",
      "outputs": [
        {
          "components": [
            {
              "internalType": "uint256",
              "name": "root",
              "type": "uint256"
            },
            {
              "internalType": "bool",
              "name": "existence",
              "type": "bool"
            },
            {
              "internalType": "uint256[]",
              "name": "siblings",
              "type": "uint256[]"
            },
            {
              "internalType": "uint256",
              "name": "index",
              "type": "uint256"
            },
            {
              "internalType": "uint256",
              "name": "value",
              "type": "uint256"
            },
            {
              "internalType": "bool",
              "name": "auxExistence",
              "type": "bool"
            },
            {
              "internalType": "uint256",
              "name": "auxIndex",
              "type": "uint256"
            },
            {
              "internalType": "uint256",
              "name": "auxValue",
              "type": "uint256"
            }
          ],
          "internalType": "struct SmtLib.Proof",
          "name": "",
          "type": "tuple"
        }
      ],
      "stateMutability": "view",
      "type": "function"
    },
    {
      "inputs": [
        {
          "internalType": "uint256",
          "name": "claimsTreeRoot",
          "type": "uint256"
        },
        {
          "internalType": "uint256",
          "name": "root",
          "type": "uint256"
        }
      ],
      "name": "getRootProofByRoot",
      "outputs": [
        {
          "components": [
            {
              "internalType": "uint256",
              "name": "root",
              "type": "uint256"
            },
            {
              "internalType": "bool",
              "name": "existence",
              "type": "bool"
            },
            {
              "internalType": "uint256[]",
              "name": "siblings",
              "type": "uint256[]"
            },
            {
              "internalType": "uint256",
              "name": "index",
              "type": "uint256"
            },
            {
              "internalType": "uint256",
              "name": "value",
              "type": "uint256"
            },
            {
              "internalType": "bool",
              "name": "auxExistence",
              "type": "bool"
            },
            {
              "internalType": "uint256",
              "name": "auxIndex",
              "type": "uint256"
            },
            {
              "internalType": "uint256",
              "name": "auxValue",
              "type": "uint256"
            }
          ],
          "internalType": "struct SmtLib.Proof",
          "name": "",
          "type": "tuple"
        }
      ],
      "stateMutability": "view",
      "type": "function"
    },
    {
      "inputs": [
        {
          "internalType": "uint256",
          "name": "state",
          "type": "uint256"
        }
      ],
      "name": "getRootsByState",
      "outputs": [
        {
          "components": [
            {
              "internalType": "uint256",
              "name": "claimsRoot",
              "type": "uint256"
            },
            {
              "internalType": "uint256",
              "name": "revocationsRoot",
              "type": "uint256"
            },
            {
              "internalType": "uint256",
              "name": "rootsRoot",
              "type": "uint256"
            }
          ],
          "internalType": "struct IdentityLib.Roots",
          "name": "",
          "type": "tuple"
        }
      ],
      "stateMutability": "view",
      "type": "function"
    },
    {
      "inputs": [],
      "name": "getRootsTreeRoot",
      "outputs": [
        {
          "internalType": "uint256",
          "name": "",
          "type": "uint256"
        }
      ],
      "stateMutability": "view",
      "type": "function"
    },
    {
      "inputs": [],
      "name": "getSmtDepth",
      "outputs": [
        {
          "internalType": "uint256",
          "name": "",
          "type": "uint256"
        }
      ],
      "stateMutability": "pure",
      "type": "function"
    },
    {
      "inputs": [
        {
          "internalType": "address",
          "name": "_stateContractAddr",
          "type": "address"
        },
        {
          "internalType": "address",
          "name": "_reclaimContractAddr",
          "type": "address"
        }
      ],
      "name": "initialize",
      "outputs": [],
      "stateMutability": "nonpayable",
      "type": "function"
    },
    {
      "inputs": [],
      "name": "newClaimData",
      "outputs": [
        {
          "components": [
            {
              "internalType": "uint256",
              "name": "schemaHash",
              "type": "uint256"
            },
            {
              "internalType": "uint8",
              "name": "idPosition",
              "type": "uint8"
            },
            {
              "internalType": "bool",
              "name": "expirable",
              "type": "bool"
            },
            {
              "internalType": "bool",
              "name": "updatable",
              "type": "bool"
            },
            {
              "internalType": "uint8",
              "name": "merklizedRootPosition",
              "type": "uint8"
            },
            {
              "internalType": "uint32",
              "name": "version",
              "type": "uint32"
            },
            {
              "internalType": "uint256",
              "name": "id",
              "type": "uint256"
            },
            {
              "internalType": "uint64",
              "name": "revocationNonce",
              "type": "uint64"
            },
            {
              "internalType": "uint64",
              "name": "expirationDate",
              "type": "uint64"
            },
            {
              "internalType": "uint256",
              "name": "merklizedRoot",
              "type": "uint256"
            },
            {
              "internalType": "uint256",
              "name": "indexDataSlotA",
              "type": "uint256"
            },
            {
              "internalType": "uint256",
              "name": "indexDataSlotB",
              "type": "uint256"
            },
            {
              "internalType": "uint256",
              "name": "valueDataSlotA",
              "type": "uint256"
            },
            {
              "internalType": "uint256",
              "name": "valueDataSlotB",
              "type": "uint256"
            }
          ],
          "internalType": "struct ClaimBuilder.ClaimData",
          "name": "",
          "type": "tuple"
        }
      ],
      "stateMutability": "pure",
      "type": "function"
    },
    {
      "inputs": [],
      "name": "owner",
      "outputs": [
        {
          "internalType": "address",
          "name": "",
          "type": "address"
        }
      ],
      "stateMutability": "view",
      "type": "function"
    },
    {
      "inputs": [],
      "name": "renounceOwnership",
      "outputs": [],
      "stateMutability": "nonpayable",
      "type": "function"
    },
    {
      "inputs": [
        {
          "internalType": "address",
          "name": "newOwner",
          "type": "address"
        }
      ],
      "name": "transferOwnership",
      "outputs": [],
      "stateMutability": "nonpayable",
      "type": "function"
    }
  ],
  "bytecode": "0x608060405234801561001057600080fd5b5061326a806100206000396000f3fe608060405234801561001057600080fd5b50600436106101a95760003560e01c8063715018a6116100f9578063b8db687111610097578063da68a0b111610071578063da68a0b1146104ea578063e26ecb0b14610508578063f2fde38b14610538578063f84c7c1e14610554576101a9565b8063b8db68711461046c578063c1e327331461049c578063c6365a3b146104cc576101a9565b80639533bad8116100d35780639533bad8146103d25780639674cfa4146103ee578063aad729211461040c578063b57a40cb1461043c576101a9565b8063715018a61461037a57806373c08244146103845780638da5cb5b146103b4576101a9565b80633df432fc116101665780634ddad0b3116101405780634ddad0b314610302578063523b8136146103205780635b9c895d1461033e5780635d1ca6311461035c576101a9565b80633df432fc146102aa5780633f0c6648146102c8578063485cc955146102e6576101a9565b806301c85c77146101ae578063110c96a7146101cc57806326485063146101fc5780632d5c4f251461022c578063310d0d5b1461025c5780633d59ec601461028c575b600080fd5b6101b6610572565b6040516101c3919061175d565b60405180910390f35b6101e660048036038101906101e191906117f8565b6105f5565b6040516101f39190611a53565b60405180910390f35b61021660048036038101906102119190611a75565b61061c565b6040516102239190611b52565b60405180910390f35b61024660048036038101906102419190611b74565b6106ae565b6040516102539190611b52565b60405180910390f35b61027660048036038101906102719190611b74565b610743565b6040516102839190611b52565b60405180910390f35b6102946107d8565b6040516102a1919061175d565b60405180910390f35b6102b26107e6565b6040516102bf919061175d565b60405180910390f35b6102d0610869565b6040516102dd919061175d565b60405180910390f35b61030060048036038101906102fb9190611c12565b610872565b005b61030a6109c9565b604051610317919061175d565b60405180910390f35b610328610a4c565b604051610335919061175d565b60405180910390f35b610346610a5d565b6040516103539190611dbc565b60405180910390f35b610364610a74565b604051610371919061175d565b60405180910390f35b610382610a82565b005b61039e60048036038101906103999190611dfd565b610a96565b6040516103ab9190611eaf565b60405180910390f35b6103bc610b1e565b6040516103c99190611eda565b60405180910390f35b6103ec60048036038101906103e79190611f14565b610b49565b005b6103f6610d06565b604051610403919061175d565b60405180910390f35b61042660048036038101906104219190611f83565b610d17565b6040516104339190611a53565b60405180910390f35b61045660048036038101906104519190611fd6565b610f2b565b6040516104639190611b52565b60405180910390f35b61048660048036038101906104819190611fd6565b610fbc565b6040516104939190612045565b60405180910390f35b6104b660048036038101906104b19190611fd6565b611049565b6040516104c39190611b52565b60405180910390f35b6104d46110db565b6040516104e1919061175d565b60405180910390f35b6104f26110ec565b6040516104ff919061175d565b60405180910390f35b610522600480360381019061051d9190612060565b61116f565b60405161052f9190611b52565b60405180910390f35b610552600480360381019061054d91906120a0565b611204565b005b61055c611287565b60405161056991906120dc565b60405180910390f35b60006101f473__$db2d230d69b02b6d9c122faf449babcabd$__63765c2c6190916040518263ffffffff1660e01b81526004016105af91906120fe565b602060405180830381865af41580156105cc573d6000803e3d6000fd5b505050506040513d601f19601f820116820180604052508101906105f0919061212e565b905090565b6105fd61158d565b60006101f4600101549050610613848285610d17565b91505092915050565b6106246115b3565b6101f473__$db2d230d69b02b6d9c122faf449babcabd$__637d0aba4f9091846040518363ffffffff1660e01b815260040161066192919061216a565b600060405180830381865af415801561067e573d6000803e3d6000fd5b505050506040513d6000823e3d601f19601f820116820180604052508101906106a79190612408565b9050919050565b6106b66115b3565b6101f473__$db2d230d69b02b6d9c122faf449babcabd$__63d55da6a3909185856040518463ffffffff1660e01b81526004016106f593929190612460565b600060405180830381865af4158015610712573d6000803e3d6000fd5b505050506040513d6000823e3d601f19601f8201168201806040525081019061073b9190612408565b905092915050565b61074b6115b3565b6101f473__$db2d230d69b02b6d9c122faf449babcabd$__63d5818b8e909185856040518463ffffffff1660e01b815260040161078a93929190612460565b600060405180830381865af41580156107a7573d6000803e3d6000fd5b505050506040513d6000823e3d601f19601f820116820180604052508101906107d09190612408565b905092915050565b60006101f460010154905090565b60006101f473__$db2d230d69b02b6d9c122faf449babcabd$__636e2fe66c90916040518263ffffffff1660e01b815260040161082391906120fe565b602060405180830381865af4158015610840573d6000803e3d6000fd5b505050506040513d601f19601f82011682018060405250810190610864919061212e565b905090565b60006028905090565b60006102ee60019054906101000a900460ff161590508080156108a8575060016102ee60009054906101000a900460ff1660ff16105b806108d857506108b7306112a2565b1580156108d7575060016102ee60009054906101000a900460ff1660ff16145b5b610917576040517f08c379a000000000000000000000000000000000000000000000000000000000815260040161090e9061251a565b60405180910390fd5b60016102ee60006101000a81548160ff021916908360ff16021790555080156109575760016102ee60016101000a81548160ff0219169083151502179055505b61096183836112c5565b610969611383565b80156109c45760006102ee60016101000a81548160ff0219169083151502179055507f7f26b83ff96e1f2b6a682f133852f6798a09c465da95921460cefb384740249860016040516109bb919061257f565b60405180910390a15b505050565b60006101f473__$db2d230d69b02b6d9c122faf449babcabd$__631a3046d790916040518263ffffffff1660e01b8152600401610a0691906120fe565b602060405180830381865af4158015610a23573d6000803e3d6000fd5b505050506040513d601f19601f82011682018060405250810190610a47919061212e565b905090565b60006101f4609a0160000154905090565b610a656115fc565b610a6d6115fc565b8091505090565b60006101f460000154905090565b610a8a6113dd565b610a94600061145b565b565b610a9e61168f565b73__$f9b05739c61fa80ae3e5c5f5a48de1dc76$__6375e8efe0836040518263ffffffff1660e01b8152600401610ad59190612855565b61010060405180830381865af4158015610af3573d6000803e3d6000fd5b505050506040513d601f19601f82011682018060405250810190610b179190612922565b9050919050565b600061032160009054906101000a900473ffffffffffffffffffffffffffffffffffffffff16905090565b6102bc60009054906101000a900473ffffffffffffffffffffffffffffffffffffffff1673ffffffffffffffffffffffffffffffffffffffff1663a960e69e826040518263ffffffff1660e01b8152600401610ba59190612e38565b6020604051808303816000875af1158015610bc4573d6000803e3d6000fd5b505050506040513d601f19601f82011682018060405250810190610be89190612e5a565b610c27576040517f08c379a0000000000000000000000000000000000000000000000000000000008152600401610c1e90612ed3565b60405180910390fd5b6101f473__$db2d230d69b02b6d9c122faf449babcabd$__6306fb1575909185856040518463ffffffff1660e01b8152600401610c6693929190612460565b60006040518083038186803b158015610c7e57600080fd5b505af4158015610c92573d6000803e3d6000fd5b505050506101f473__$db2d230d69b02b6d9c122faf449babcabd$__632eb747d290916040518263ffffffff1660e01b8152600401610cd191906120fe565b60006040518083038186803b158015610ce957600080fd5b505af4158015610cfd573d6000803e3d6000fd5b50505050505050565b60006101f4609a0160010154905090565b610d1f61158d565b6101f4600001548414610d67576040517f08c379a0000000000000000000000000000000000000000000000000000000008152600401610d5e90612f3f565b60405180910390fd5b60006101f473__$db2d230d69b02b6d9c122faf449babcabd$__630b1a9cd39091866040518363ffffffff1660e01b8152600401610da6929190612f5f565b606060405180830381865af4158015610dc3573d6000803e3d6000fd5b505050506040513d601f19601f82011682018060405250810190610de79190612fec565b90506000604051806080016040528086815260200183600001518152602001836020015181526020018360400151815250905060006101f473__$db2d230d69b02b6d9c122faf449babcabd$__6316579a3690918786602001516040518463ffffffff1660e01b8152600401610e5f93929190613019565b600060405180830381865af4158015610e7c573d6000803e3d6000fd5b505050506040513d6000823e3d601f19601f82011682018060405250810190610ea59190612408565b90506000604051806101000160405280836000015181526020018360200151151581526020018360400151815260200183606001518152602001836080015181526020018360a00151151581526020018360c0015181526020018360e0015181525090506040518060400160405280848152602001828152509450505050509392505050565b610f336115b3565b6101f473__$db2d230d69b02b6d9c122faf449babcabd$__62cf08909091846040518363ffffffff1660e01b8152600401610f6f929190612f5f565b600060405180830381865af4158015610f8c573d6000803e3d6000fd5b505050506040513d6000823e3d601f19601f82011682018060405250810190610fb59190612408565b9050919050565b610fc46116b2565b6101f473__$db2d230d69b02b6d9c122faf449babcabd$__630b1a9cd39091846040518363ffffffff1660e01b8152600401611001929190612f5f565b606060405180830381865af415801561101e573d6000803e3d6000fd5b505050506040513d601f19601f820116820180604052508101906110429190612fec565b9050919050565b6110516115b3565b6101f473__$db2d230d69b02b6d9c122faf449babcabd$__6397ac53919091846040518363ffffffff1660e01b815260040161108e929190612f5f565b600060405180830381865af41580156110ab573d6000803e3d6000fd5b505050506040513d6000823e3d601f19601f820116820180604052508101906110d49190612408565b9050919050565b60006101f4609a0160020154905090565b60006101f473__$db2d230d69b02b6d9c122faf449babcabd$__631e75e7f390916040518263ffffffff1660e01b815260040161112991906120fe565b602060405180830381865af4158015611146573d6000803e3d6000fd5b505050506040513d601f19601f8201168201806040525081019061116a919061212e565b905090565b6111776115b3565b6101f473__$db2d230d69b02b6d9c122faf449babcabd$__6316579a36909185856040518463ffffffff1660e01b81526004016111b693929190613019565b600060405180830381865af41580156111d3573d6000803e3d6000fd5b505050506040513d6000823e3d601f19601f820116820180604052508101906111fc9190612408565b905092915050565b61120c6113dd565b600073ffffffffffffffffffffffffffffffffffffffff168173ffffffffffffffffffffffffffffffffffffffff160361127b576040517f08c379a0000000000000000000000000000000000000000000000000000000008152600401611272906130c2565b60405180910390fd5b6112848161145b565b50565b60006101f460020160009054906101000a900460ff16905090565b6000808273ffffffffffffffffffffffffffffffffffffffff163b119050919050565b6101f473__$db2d230d69b02b6d9c122faf449babcabd$__63d3cd4e9b909184306112ee610869565b6040518563ffffffff1660e01b815260040161130d94939291906130f1565b60006040518083038186803b15801561132557600080fd5b505af4158015611339573d6000803e3d6000fd5b50505050806102bc60006101000a81548173ffffffffffffffffffffffffffffffffffffffff021916908373ffffffffffffffffffffffffffffffffffffffff1602179055505050565b6102ee60019054906101000a900460ff166113d3576040517f08c379a00000000000000000000000000000000000000000000000000000000081526004016113ca906131a8565b60405180910390fd5b6113db611523565b565b6113e5611585565b73ffffffffffffffffffffffffffffffffffffffff16611403610b1e565b73ffffffffffffffffffffffffffffffffffffffff1614611459576040517f08c379a000000000000000000000000000000000000000000000000000000000815260040161145090613214565b60405180910390fd5b565b600061032160009054906101000a900473ffffffffffffffffffffffffffffffffffffffff1690508161032160006101000a81548173ffffffffffffffffffffffffffffffffffffffff021916908373ffffffffffffffffffffffffffffffffffffffff1602179055508173ffffffffffffffffffffffffffffffffffffffff168173ffffffffffffffffffffffffffffffffffffffff167f8be0079c531659141344cd1fd0a4f28419497f9722a3daafe3b4186f6b6457e060405160405180910390a35050565b6102ee60019054906101000a900460ff16611573576040517f08c379a000000000000000000000000000000000000000000000000000000000815260040161156a906131a8565b60405180910390fd5b61158361157e611585565b61145b565b565b600033905090565b60405180604001604052806115a06116d3565b81526020016115ad6116fb565b81525090565b6040518061010001604052806000815260200160001515815260200160608152602001600081526020016000815260200160001515815260200160008152602001600081525090565b604051806101c0016040528060008152602001600060ff168152602001600015158152602001600015158152602001600060ff168152602001600063ffffffff16815260200160008152602001600067ffffffffffffffff168152602001600067ffffffffffffffff16815260200160008152602001600081526020016000815260200160008152602001600081525090565b604051806101000160405280600890602082028036833780820191505090505090565b60405180606001604052806000815260200160008152602001600081525090565b6040518060800160405280600081526020016000815260200160008152602001600081525090565b6040518061010001604052806000815260200160001515815260200160608152602001600081526020016000815260200160001515815260200160008152602001600081525090565b6000819050919050565b61175781611744565b82525050565b6000602082019050611772600083018461174e565b92915050565b6000604051905090565b600080fd5b600080fd5b61179581611744565b81146117a057600080fd5b50565b6000813590506117b28161178c565b92915050565b600067ffffffffffffffff82169050919050565b6117d5816117b8565b81146117e057600080fd5b50565b6000813590506117f2816117cc565b92915050565b6000806040838503121561180f5761180e611782565b5b600061181d858286016117a3565b925050602061182e858286016117e3565b9150509250929050565b61184181611744565b82525050565b60808201600082015161185d6000850182611838565b5060208201516118706020850182611838565b5060408201516118836040850182611838565b5060608201516118966060850182611838565b50505050565b60008115159050919050565b6118b18161189c565b82525050565b600081519050919050565b600082825260208201905092915050565b6000819050602082019050919050565b60006118ef8383611838565b60208301905092915050565b6000602082019050919050565b6000611913826118b7565b61191d81856118c2565b9350611928836118d3565b8060005b8381101561195957815161194088826118e3565b975061194b836118fb565b92505060018101905061192c565b5085935050505092915050565b60006101008301600083015161197f6000860182611838565b50602083015161199260208601826118a8565b50604083015184820360408601526119aa8282611908565b91505060608301516119bf6060860182611838565b5060808301516119d26080860182611838565b5060a08301516119e560a08601826118a8565b5060c08301516119f860c0860182611838565b5060e0830151611a0b60e0860182611838565b508091505092915050565b600060a083016000830151611a2e6000860182611847565b5060208301518482036080860152611a468282611966565b9150508091505092915050565b60006020820190508181036000830152611a6d8184611a16565b905092915050565b600060208284031215611a8b57611a8a611782565b5b6000611a99848285016117e3565b91505092915050565b600061010083016000830151611abb6000860182611838565b506020830151611ace60208601826118a8565b5060408301518482036040860152611ae68282611908565b9150506060830151611afb6060860182611838565b506080830151611b0e6080860182611838565b5060a0830151611b2160a08601826118a8565b5060c0830151611b3460c0860182611838565b5060e0830151611b4760e0860182611838565b508091505092915050565b60006020820190508181036000830152611b6c8184611aa2565b905092915050565b60008060408385031215611b8b57611b8a611782565b5b6000611b99858286016117a3565b9250506020611baa858286016117a3565b9150509250929050565b600073ffffffffffffffffffffffffffffffffffffffff82169050919050565b6000611bdf82611bb4565b9050919050565b611bef81611bd4565b8114611bfa57600080fd5b50565b600081359050611c0c81611be6565b92915050565b60008060408385031215611c2957611c28611782565b5b6000611c3785828601611bfd565b9250506020611c4885828601611bfd565b9150509250929050565b600060ff82169050919050565b611c6881611c52565b82525050565b600063ffffffff82169050919050565b611c8781611c6e565b82525050565b611c96816117b8565b82525050565b6101c082016000820151611cb36000850182611838565b506020820151611cc66020850182611c5f565b506040820151611cd960408501826118a8565b506060820151611cec60608501826118a8565b506080820151611cff6080850182611c5f565b5060a0820151611d1260a0850182611c7e565b5060c0820151611d2560c0850182611838565b5060e0820151611d3860e0850182611c8d565b50610100820151611d4d610100850182611c8d565b50610120820151611d62610120850182611838565b50610140820151611d77610140850182611838565b50610160820151611d8c610160850182611838565b50610180820151611da1610180850182611838565b506101a0820151611db66101a0850182611838565b50505050565b60006101c082019050611dd26000830184611c9c565b92915050565b600080fd5b60006101c08284031215611df457611df3611dd8565b5b81905092915050565b60006101c08284031215611e1457611e13611782565b5b6000611e2284828501611ddd565b91505092915050565b600060089050919050565b600081905092915050565b6000819050919050565b6000602082019050919050565b611e6181611e2b565b611e6b8184611e36565b9250611e7682611e41565b8060005b83811015611ea7578151611e8e87826118e3565b9650611e9983611e4b565b925050600181019050611e7a565b505050505050565b600061010082019050611ec56000830184611e58565b92915050565b611ed481611bd4565b82525050565b6000602082019050611eef6000830184611ecb565b92915050565b600060408284031215611f0b57611f0a611dd8565b5b81905092915050565b600080600060608486031215611f2d57611f2c611782565b5b6000611f3b868287016117a3565b9350506020611f4c868287016117a3565b925050604084013567ffffffffffffffff811115611f6d57611f6c611787565b5b611f7986828701611ef5565b9150509250925092565b600080600060608486031215611f9c57611f9b611782565b5b6000611faa868287016117a3565b9350506020611fbb868287016117a3565b9250506040611fcc868287016117e3565b9150509250925092565b600060208284031215611fec57611feb611782565b5b6000611ffa848285016117a3565b91505092915050565b6060820160008201516120196000850182611838565b50602082015161202c6020850182611838565b50604082015161203f6040850182611838565b50505050565b600060608201905061205a6000830184612003565b92915050565b6000806040838503121561207757612076611782565b5b6000612085858286016117e3565b9250506020612096858286016117a3565b9150509250929050565b6000602082840312156120b6576120b5611782565b5b60006120c484828501611bfd565b91505092915050565b6120d68161189c565b82525050565b60006020820190506120f160008301846120cd565b92915050565b8082525050565b600060208201905061211360008301846120f7565b92915050565b6000815190506121288161178c565b92915050565b60006020828403121561214457612143611782565b5b600061215284828501612119565b91505092915050565b612164816117b8565b82525050565b600060408201905061217f60008301856120f7565b61218c602083018461215b565b9392505050565b600080fd5b6000601f19601f8301169050919050565b7f4e487b7100000000000000000000000000000000000000000000000000000000600052604160045260246000fd5b6121e182612198565b810181811067ffffffffffffffff82111715612200576121ff6121a9565b5b80604052505050565b6000612213611778565b905061221f82826121d8565b919050565b600080fd5b6122328161189c565b811461223d57600080fd5b50565b60008151905061224f81612229565b92915050565b600080fd5b600067ffffffffffffffff821115612275576122746121a9565b5b602082029050602081019050919050565b600080fd5b600061229e6122998461225a565b612209565b905080838252602082019050602084028301858111156122c1576122c0612286565b5b835b818110156122ea57806122d68882612119565b8452602084019350506020810190506122c3565b5050509392505050565b600082601f83011261230957612308612255565b5b815161231984826020860161228b565b91505092915050565b6000610100828403121561233957612338612193565b5b612344610100612209565b9050600061235484828501612119565b600083015250602061236884828501612240565b602083015250604082015167ffffffffffffffff81111561238c5761238b612224565b5b612398848285016122f4565b60408301525060606123ac84828501612119565b60608301525060806123c084828501612119565b60808301525060a06123d484828501612240565b60a08301525060c06123e884828501612119565b60c08301525060e06123fc84828501612119565b60e08301525092915050565b60006020828403121561241e5761241d611782565b5b600082015167ffffffffffffffff81111561243c5761243b611787565b5b61244884828501612322565b91505092915050565b61245a81611744565b82525050565b600060608201905061247560008301866120f7565b6124826020830185612451565b61248f6040830184612451565b949350505050565b600082825260208201905092915050565b7f496e697469616c697a61626c653a20636f6e747261637420697320616c72656160008201527f647920696e697469616c697a6564000000000000000000000000000000000000602082015250565b6000612504602e83612497565b915061250f826124a8565b604082019050919050565b60006020820190508181036000830152612533816124f7565b9050919050565b6000819050919050565b6000819050919050565b600061256961256461255f8461253a565b612544565b611c52565b9050919050565b6125798161254e565b82525050565b60006020820190506125946000830184612570565b92915050565b60006125a960208401846117a3565b905092915050565b6125ba81611744565b82525050565b6125c981611c52565b81146125d457600080fd5b50565b6000813590506125e6816125c0565b92915050565b60006125fb60208401846125d7565b905092915050565b61260c81611c52565b82525050565b60008135905061262181612229565b92915050565b60006126366020840184612612565b905092915050565b6126478161189c565b82525050565b61265681611c6e565b811461266157600080fd5b50565b6000813590506126738161264d565b92915050565b60006126886020840184612664565b905092915050565b61269981611c6e565b82525050565b60006126ae60208401846117e3565b905092915050565b6126bf816117b8565b82525050565b6101c082016126d7600083018361259a565b6126e460008501826125b1565b506126f260208301836125ec565b6126ff6020850182612603565b5061270d6040830183612627565b61271a604085018261263e565b506127286060830183612627565b612735606085018261263e565b5061274360808301836125ec565b6127506080850182612603565b5061275e60a0830183612679565b61276b60a0850182612690565b5061277960c083018361259a565b61278660c08501826125b1565b5061279460e083018361269f565b6127a160e08501826126b6565b506127b061010083018361269f565b6127be6101008501826126b6565b506127cd61012083018361259a565b6127db6101208501826125b1565b506127ea61014083018361259a565b6127f86101408501826125b1565b5061280761016083018361259a565b6128156101608501826125b1565b5061282461018083018361259a565b6128326101808501826125b1565b506128416101a083018361259a565b61284f6101a08501826125b1565b50505050565b60006101c08201905061286b60008301846126c5565b92915050565b600067ffffffffffffffff82111561288c5761288b6121a9565b5b602082029050919050565b60006128aa6128a584612871565b612209565b905080602084028301858111156128c4576128c3612286565b5b835b818110156128ed57806128d98882612119565b8452602084019350506020810190506128c6565b5050509392505050565b600082601f83011261290c5761290b612255565b5b6008612919848285612897565b91505092915050565b6000610100828403121561293957612938611782565b5b6000612947848285016128f7565b91505092915050565b600080fd5b60008235600160600383360303811261297157612970612950565b5b82810191505092915050565b600080fd5b600080fd5b600080833560016020038436030381126129a4576129a3612950565b5b83810192508235915060208301925067ffffffffffffffff8211156129cc576129cb61297d565b5b6001820236038313156129e2576129e1612982565b5b509250929050565b600082825260208201905092915050565b82818337600083830152505050565b6000612a1683856129ea565b9350612a238385846129fb565b612a2c83612198565b840190509392505050565b600060608301612a4a6000840184612987565b8583036000870152612a5d838284612a0a565b92505050612a6e6020840184612987565b8583036020870152612a81838284612a0a565b92505050612a926040840184612987565b8583036040870152612aa5838284612a0a565b925050508091505092915050565b60008235600160a003833603038112612acf57612ace612950565b5b82810191505092915050565b600082905092915050565b6000819050919050565b612af981612ae6565b8114612b0457600080fd5b50565b600081359050612b1681612af0565b92915050565b6000612b2b6020840184612b07565b905092915050565b612b3c81612ae6565b82525050565b6000612b516020840184611bfd565b905092915050565b612b6281611bd4565b82525050565b60808201612b796000830183612b1c565b612b866000850182612b33565b50612b946020830183612b42565b612ba16020850182612b59565b50612baf6040830183612679565b612bbc6040850182611c7e565b50612bca6060830183612679565b612bd76060850182611c7e565b50505050565b60008083356001602003843603038112612bfa57612bf9612950565b5b83810192508235915060208301925067ffffffffffffffff821115612c2257612c2161297d565b5b602082023603831315612c3857612c37612982565b5b509250929050565b600082825260208201905092915050565b6000819050919050565b600082825260208201905092915050565b6000612c788385612c5b565b9350612c858385846129fb565b612c8e83612198565b840190509392505050565b6000612ca6848484612c6c565b90509392505050565b60008083356001602003843603038112612ccc57612ccb612950565b5b83810192508235915060208301925067ffffffffffffffff821115612cf457612cf361297d565b5b600182023603831315612d0a57612d09612982565b5b509250929050565b6000602082019050919050565b6000612d2b8385612c40565b935083602084028501612d3d84612c51565b8060005b87811015612d83578484038952612d588284612caf565b612d63868284612c99565b9550612d6e84612d12565b935060208b019a505050600181019050612d41565b50829750879450505050509392505050565b600060a08301612da86000840184612adb565b612db56000860182612b68565b50612dc36080840184612bdd565b8583036080870152612dd6838284612d1f565b925050508091505092915050565b600060408301612df76000840184612955565b8482036000860152612e098282612a37565b915050612e196020840184612ab3565b8482036020860152612e2b8282612d95565b9150508091505092915050565b60006020820190508181036000830152612e528184612de4565b905092915050565b600060208284031215612e7057612e6f611782565b5b6000612e7e84828501612240565b91505092915050565b7f496e76616c6964207265636c61696d2070726f6f660000000000000000000000600082015250565b6000612ebd601583612497565b9150612ec882612e87565b602082019050919050565b60006020820190508181036000830152612eec81612eb0565b9050919050565b7f4964656e74697479206964206d69736d61746368000000000000000000000000600082015250565b6000612f29601483612497565b9150612f3482612ef3565b602082019050919050565b60006020820190508181036000830152612f5881612f1c565b9050919050565b6000604082019050612f7460008301856120f7565b612f816020830184612451565b9392505050565b600060608284031215612f9e57612f9d612193565b5b612fa86060612209565b90506000612fb884828501612119565b6000830152506020612fcc84828501612119565b6020830152506040612fe084828501612119565b60408301525092915050565b60006060828403121561300257613001611782565b5b600061301084828501612f88565b91505092915050565b600060608201905061302e60008301866120f7565b61303b602083018561215b565b6130486040830184612451565b949350505050565b7f4f776e61626c653a206e6577206f776e657220697320746865207a65726f206160008201527f6464726573730000000000000000000000000000000000000000000000000000602082015250565b60006130ac602683612497565b91506130b782613050565b604082019050919050565b600060208201905081810360008301526130db8161309f565b9050919050565b6130eb81611bd4565b82525050565b600060808201905061310660008301876120f7565b61311360208301866130e2565b61312060408301856130e2565b61312d6060830184612451565b95945050505050565b7f496e697469616c697a61626c653a20636f6e7472616374206973206e6f74206960008201527f6e697469616c697a696e67000000000000000000000000000000000000000000602082015250565b6000613192602b83612497565b915061319d82613136565b604082019050919050565b600060208201905081810360008301526131c181613185565b9050919050565b7f4f776e61626c653a2063616c6c6572206973206e6f7420746865206f776e6572600082015250565b60006131fe602083612497565b9150613209826131c8565b602082019050919050565b6000602082019050818103600083015261322d816131f1565b905091905056fea2646970667358221220470464a7627f9c8b92b166bc6953d8d8d0c58cb1f2bca633418a1bd982cb8aa164736f6c63430008100033",
  "linkReferences": {
    "contracts/lib/ClaimBuilder.sol": {
      "ClaimBuilder": [
        {
          "length": 20,
          "start": 2752
        }
      ]
    },
    "contracts/lib/IdentityLib.sol": {
      "IdentityLib": [
        {
          "length": 20,
          "start": 1433
        },
        {
          "length": 20,
          "start": 1609
        },
        {
          "length": 20,
          "start": 1755
        },
        {
          "length": 20,
          "start": 1904
        },
        {
          "length": 20,
          "start": 2061
        },
        {
          "length": 20,
          "start": 2544
        },
        {
          "length": 20,
          "start": 3148
        },
        {
          "length": 20,
          "start": 3259
        },
        {
          "length": 20,
          "start": 3470
        },
        {
          "length": 20,
          "start": 3649
        },
        {
          "length": 20,
          "start": 3928
        },
        {
          "length": 20,
          "start": 4073
        },
        {
          "length": 20,
          "start": 4214
        },
        {
          "length": 20,
          "start": 4371
        },
        {
          "length": 20,
          "start": 4508
        },
        {
          "length": 20,
          "start": 4842
        }
      ]
    }
  },
  "deployedLinkReferences": {
    "contracts/lib/ClaimBuilder.sol": {
      "ClaimBuilder": [
        {
          "length": 20,
          "start": 2720
        }
      ]
    },
    "contracts/lib/IdentityLib.sol": {
      "IdentityLib": [
        {
          "length": 20,
          "start": 1401
        },
        {
          "length": 20,
          "start": 1577
        },
        {
          "length": 20,
          "start": 1723
        },
        {
          "length": 20,
          "start": 1872
        },
        {
          "length": 20,
          "start": 2029
        },
        {
          "length": 20,
          "start": 2512
        },
        {
          "length": 20,
          "start": 3116
        },
        {
          "length": 20,
          "start": 3227
        },
        {
          "length": 20,
          "start": 3438
        },
        {
          "length": 20,
          "start": 3617
        },
        {
          "length": 20,
          "start": 3896
        },
        {
          "length": 20,
          "start": 4041
        },
        {
          "length": 20,
          "start": 4182
        },
        {
          "length": 20,
          "start": 4339
        },
        {
          "length": 20,
          "start": 4476
        },
        {
          "length": 20,
          "start": 4810
        }
      ]
    }
  }
}