{
  "_format": "hh-sol-artifact-1",
  "contractName": "ReclaimPortal",
  "sourceName": "contracts/verax/ReclaimPortal.sol",
  "abi": [
    {
      "inputs": [
        {
          "internalType": "address[]",
          "name": "modules",
          "type": "address[]"
        },
        {
          "internalType": "address",
          "name": "router",
          "type": "address"
        }
      ],
      "stateMutability": "nonpayable",
      "type": "constructor"
    },
    {
      "inputs": [],
      "name": "NoBulkRevocation",
      "type": "error"
    },
    {
      "inputs": [],
      "name": "NoRevocation",
      "type": "error"
    },
    {
      "inputs": [],
      "name": "OnlyPortalOwner",
      "type": "error"
    },
    {
      "inputs": [
        {
          "components": [
            {
              "internalType": "bytes32",
              "name": "schemaId",
              "type": "bytes32"
            },
            {
              "internalType": "uint64",
              "name": "expirationDate",
              "type": "uint64"
            },
            {
              "internalType": "bytes",
              "name": "subject",
              "type": "bytes"
            },
            {
              "internalType": "bytes",
              "name": "attestationData",
              "type": "bytes"
            }
          ],
          "internalType": "struct AttestationPayload",
          "name": "attestationPayload",
          "type": "tuple"
        },
        {
          "internalType": "bytes[]",
          "name": "validationPayloads",
          "type": "bytes[]"
        }
      ],
      "name": "attest",
      "outputs": [],
      "stateMutability": "payable",
      "type": "function"
    },
    {
      "inputs": [
        {
          "components": [
            {
              "internalType": "bytes32",
              "name": "schema",
              "type": "bytes32"
            },
            {
              "components": [
                {
                  "components": [
                    {
                      "components": [
                        {
                          "internalType": "string",
                          "name": "provider",
                          "type": "string"
                        },
                        {
                          "internalType": "string",
                          "name": "parameters",
                          "type": "string"
                        },
                        {
                          "internalType": "string",
                          "name": "context",
                          "type": "string"
                        }
                      ],
                      "internalType": "struct Claims.ClaimInfo",
                      "name": "claimInfo",
                      "type": "tuple"
                    },
                    {
                      "components": [
                        {
                          "components": [
                            {
                              "internalType": "bytes32",
                              "name": "identifier",
                              "type": "bytes32"
                            },
                            {
                              "internalType": "address",
                              "name": "owner",
                              "type": "address"
                            },
                            {
                              "internalType": "uint32",
                              "name": "timestampS",
                              "type": "uint32"
                            },
                            {
                              "internalType": "uint32",
                              "name": "epoch",
                              "type": "uint32"
                            }
                          ],
                          "internalType": "struct Claims.CompleteClaimData",
                          "name": "claim",
                          "type": "tuple"
                        },
                        {
                          "internalType": "bytes[]",
                          "name": "signatures",
                          "type": "bytes[]"
                        }
                      ],
                      "internalType": "struct Claims.SignedClaim",
                      "name": "signedClaim",
                      "type": "tuple"
                    }
                  ],
                  "internalType": "struct Reclaim.Proof",
                  "name": "proof",
                  "type": "tuple"
                },
                {
                  "internalType": "uint256",
                  "name": "_identityCommitment",
                  "type": "uint256"
                },
                {
                  "internalType": "uint64",
                  "name": "expirationTime",
                  "type": "uint64"
                }
              ],
              "internalType": "struct ReclaimPortal.AttestationRequestData",
              "name": "data",
              "type": "tuple"
            }
          ],
          "internalType": "struct ReclaimPortal.AttestationRequest",
          "name": "attestationRequest",
          "type": "tuple"
        }
      ],
      "name": "attest",
      "outputs": [],
      "stateMutability": "payable",
      "type": "function"
    },
    {
      "inputs": [],
      "name": "attestationRegistry",
      "outputs": [
        {
          "internalType": "contract AttestationRegistry",
          "name": "",
          "type": "address"
        }
      ],
      "stateMutability": "view",
      "type": "function"
    },
    {
      "inputs": [
        {
          "components": [
            {
              "internalType": "bytes32",
              "name": "schemaId",
              "type": "bytes32"
            },
            {
              "internalType": "uint64",
              "name": "expirationDate",
              "type": "uint64"
            },
            {
              "internalType": "bytes",
              "name": "subject",
              "type": "bytes"
            },
            {
              "internalType": "bytes",
              "name": "attestationData",
              "type": "bytes"
            }
          ],
          "internalType": "struct AttestationPayload[]",
          "name": "attestationsPayloads",
          "type": "tuple[]"
        },
        {
          "internalType": "bytes[][]",
          "name": "validationPayloads",
          "type": "bytes[][]"
        }
      ],
      "name": "bulkAttest",
      "outputs": [],
      "stateMutability": "nonpayable",
      "type": "function"
    },
    {
      "inputs": [
        {
          "internalType": "bytes32[]",
          "name": "attestationIds",
          "type": "bytes32[]"
        },
        {
          "components": [
            {
              "internalType": "bytes32",
              "name": "schemaId",
              "type": "bytes32"
            },
            {
              "internalType": "uint64",
              "name": "expirationDate",
              "type": "uint64"
            },
            {
              "internalType": "bytes",
              "name": "subject",
              "type": "bytes"
            },
            {
              "internalType": "bytes",
              "name": "attestationData",
              "type": "bytes"
            }
          ],
          "internalType": "struct AttestationPayload[]",
          "name": "attestationsPayloads",
          "type": "tuple[]"
        },
        {
          "internalType": "bytes[][]",
          "name": "validationPayloads",
          "type": "bytes[][]"
        }
      ],
      "name": "bulkReplace",
      "outputs": [],
      "stateMutability": "nonpayable",
      "type": "function"
    },
    {
      "inputs": [
        {
          "internalType": "bytes32[]",
          "name": "attestationIds",
          "type": "bytes32[]"
        }
      ],
      "name": "bulkRevoke",
      "outputs": [],
      "stateMutability": "nonpayable",
      "type": "function"
    },
    {
      "inputs": [],
      "name": "getAttester",
      "outputs": [
        {
          "internalType": "address",
          "name": "",
          "type": "address"
        }
      ],
      "stateMutability": "view",
      "type": "function"
    },
    {
      "inputs": [],
      "name": "getModules",
      "outputs": [
        {
          "internalType": "address[]",
          "name": "",
          "type": "address[]"
        }
      ],
      "stateMutability": "view",
      "type": "function"
    },
    {
      "inputs": [],
      "name": "moduleRegistry",
      "outputs": [
        {
          "internalType": "contract ModuleRegistry",
          "name": "",
          "type": "address"
        }
      ],
      "stateMutability": "view",
      "type": "function"
    },
    {
      "inputs": [
        {
          "internalType": "uint256",
          "name": "",
          "type": "uint256"
        }
      ],
      "name": "modules",
      "outputs": [
        {
          "internalType": "address",
          "name": "",
          "type": "address"
        }
      ],
      "stateMutability": "view",
      "type": "function"
    },
    {
      "inputs": [],
      "name": "portalRegistry",
      "outputs": [
        {
          "internalType": "contract PortalRegistry",
          "name": "",
          "type": "address"
        }
      ],
      "stateMutability": "view",
      "type": "function"
    },
    {
      "inputs": [
        {
          "internalType": "bytes32",
          "name": "attestationId",
          "type": "bytes32"
        },
        {
          "components": [
            {
              "internalType": "bytes32",
              "name": "schemaId",
              "type": "bytes32"
            },
            {
              "internalType": "uint64",
              "name": "expirationDate",
              "type": "uint64"
            },
            {
              "internalType": "bytes",
              "name": "subject",
              "type": "bytes"
            },
            {
              "internalType": "bytes",
              "name": "attestationData",
              "type": "bytes"
            }
          ],
          "internalType": "struct AttestationPayload",
          "name": "attestationPayload",
          "type": "tuple"
        },
        {
          "internalType": "bytes[]",
          "name": "validationPayloads",
          "type": "bytes[]"
        }
      ],
      "name": "replace",
      "outputs": [],
      "stateMutability": "payable",
      "type": "function"
    },
    {
      "inputs": [
        {
          "internalType": "bytes32",
          "name": "attestationId",
          "type": "bytes32"
        }
      ],
      "name": "revoke",
      "outputs": [],
      "stateMutability": "nonpayable",
      "type": "function"
    },
    {
      "inputs": [],
      "name": "router",
      "outputs": [
        {
          "internalType": "contract IRouter",
          "name": "",
          "type": "address"
        }
      ],
      "stateMutability": "view",
      "type": "function"
    },
    {
      "inputs": [
        {
          "internalType": "bytes4",
          "name": "interfaceID",
          "type": "bytes4"
        }
      ],
      "name": "supportsInterface",
      "outputs": [
        {
          "internalType": "bool",
          "name": "",
          "type": "bool"
        }
      ],
      "stateMutability": "pure",
      "type": "function"
    },
    {
      "inputs": [
        {
          "internalType": "address payable",
          "name": "to",
          "type": "address"
        },
        {
          "internalType": "uint256",
          "name": "amount",
          "type": "uint256"
        }
      ],
      "name": "withdraw",
      "outputs": [],
      "stateMutability": "nonpayable",
      "type": "function"
    }
  ],
  "bytecode": "0x60806040523480156200001157600080fd5b506040516200301b3803806200301b8339818101604052810190620000379190620005ae565b818181600190805190602001906200005192919062000312565b50806000806101000a81548173ffffffffffffffffffffffffffffffffffffffff021916908373ffffffffffffffffffffffffffffffffffffffff16021790555060008054906101000a900473ffffffffffffffffffffffffffffffffffffffff1673ffffffffffffffffffffffffffffffffffffffff1663bfa665856040518163ffffffff1660e01b8152600401602060405180830381865afa158015620000fe573d6000803e3d6000fd5b505050506040513d601f19601f8201168201806040525081019062000124919062000614565b600360006101000a81548173ffffffffffffffffffffffffffffffffffffffff021916908373ffffffffffffffffffffffffffffffffffffffff16021790555060008054906101000a900473ffffffffffffffffffffffffffffffffffffffff1673ffffffffffffffffffffffffffffffffffffffff1663edec79526040518163ffffffff1660e01b8152600401602060405180830381865afa158015620001d0573d6000803e3d6000fd5b505050506040513d601f19601f82011682018060405250810190620001f6919062000614565b600260006101000a81548173ffffffffffffffffffffffffffffffffffffffff021916908373ffffffffffffffffffffffffffffffffffffffff16021790555060008054906101000a900473ffffffffffffffffffffffffffffffffffffffff1673ffffffffffffffffffffffffffffffffffffffff1663b7dac9766040518163ffffffff1660e01b8152600401602060405180830381865afa158015620002a2573d6000803e3d6000fd5b505050506040513d601f19601f82011682018060405250810190620002c8919062000614565b600460006101000a81548173ffffffffffffffffffffffffffffffffffffffff021916908373ffffffffffffffffffffffffffffffffffffffff1602179055505050505062000646565b8280548282559060005260206000209081019282156200038e579160200282015b828111156200038d5782518260006101000a81548173ffffffffffffffffffffffffffffffffffffffff021916908373ffffffffffffffffffffffffffffffffffffffff1602179055509160200191906001019062000333565b5b5090506200039d9190620003a1565b5090565b5b80821115620003bc576000816000905550600101620003a2565b5090565b6000604051905090565b600080fd5b600080fd5b600080fd5b6000601f19601f8301169050919050565b7f4e487b7100000000000000000000000000000000000000000000000000000000600052604160045260246000fd5b6200042482620003d9565b810181811067ffffffffffffffff82111715620004465762000445620003ea565b5b80604052505050565b60006200045b620003c0565b905062000469828262000419565b919050565b600067ffffffffffffffff8211156200048c576200048b620003ea565b5b602082029050602081019050919050565b600080fd5b600073ffffffffffffffffffffffffffffffffffffffff82169050919050565b6000620004cf82620004a2565b9050919050565b620004e181620004c2565b8114620004ed57600080fd5b50565b6000815190506200050181620004d6565b92915050565b60006200051e62000518846200046e565b6200044f565b905080838252602082019050602084028301858111156200054457620005436200049d565b5b835b818110156200057157806200055c8882620004f0565b84526020840193505060208101905062000546565b5050509392505050565b600082601f830112620005935762000592620003d4565b5b8151620005a584826020860162000507565b91505092915050565b60008060408385031215620005c857620005c7620003ca565b5b600083015167ffffffffffffffff811115620005e957620005e8620003cf565b5b620005f7858286016200057b565b92505060206200060a85828601620004f0565b9150509250929050565b6000602082840312156200062d576200062c620003ca565b5b60006200063d84828501620004f0565b91505092915050565b6129c580620006566000396000f3fe6080604052600436106100f35760003560e01c8063b66649341161008a578063ecdbb4fd11610059578063ecdbb4fd146102fa578063ed6d73f914610316578063f3fef3a314610341578063f887ea401461036a576100f3565b8063b66649341461025f578063b75c7dc61461028a578063b95459e4146102b3578063e46d9278146102de576100f3565b8063523ba7ca116100c6578063523ba7ca146101a357806381b2248a146101cc5780638388e22614610209578063b2494df314610234576100f3565b806301ffc9a7146100f857806307432196146101355780633cc30e2a146101515780634ada80761461017a575b600080fd5b34801561010457600080fd5b5061011f600480360381019061011a9190610e84565b610395565b60405161012c9190610ecc565b60405180910390f35b61014f600480360381019061014a9190611243565b6104cf565b005b34801561015d57600080fd5b5061017860048036038101906101739190611540565b61060f565b005b34801561018657600080fd5b506101a1600480360381019061019c91906115e7565b610749565b005b3480156101af57600080fd5b506101ca60048036038101906101c59190611630565b6107e2565b005b3480156101d857600080fd5b506101f360048036038101906101ee91906116de565b610918565b604051610200919061174c565b60405180910390f35b34801561021557600080fd5b5061021e610957565b60405161022b919061174c565b60405180910390f35b34801561024057600080fd5b5061024961095f565b6040516102569190611825565b60405180910390f35b34801561026b57600080fd5b506102746109ed565b60405161028191906118a6565b60405180910390f35b34801561029657600080fd5b506102b160048036038101906102ac91906118c1565b610a13565b005b3480156102bf57600080fd5b506102c8610aac565b6040516102d5919061190f565b60405180910390f35b6102f860048036038101906102f39190611d43565b610ad2565b005b610314600480360381019061030f9190611d8c565b610c0e565b005b34801561032257600080fd5b5061032b610d52565b6040516103389190611e38565b60405180910390f35b34801561034d57600080fd5b5061036860048036038101906103639190611e91565b610d78565b005b34801561037657600080fd5b5061037f610d7c565b60405161038c9190611ef2565b60405180910390f35b60007f204cf909000000000000000000000000000000000000000000000000000000007bffffffffffffffffffffffffffffffffffffffffffffffffffffffff1916827bffffffffffffffffffffffffffffffffffffffffffffffffffffffff1916148061046057507f31c1afd5000000000000000000000000000000000000000000000000000000007bffffffffffffffffffffffffffffffffffffffffffffffffffffffff1916827bffffffffffffffffffffffffffffffffffffffffffffffffffffffff1916145b806104c857507f01ffc9a7000000000000000000000000000000000000000000000000000000007bffffffffffffffffffffffffffffffffffffffffffffffffffffffff1916827bffffffffffffffffffffffffffffffffffffffffffffffffffffffff1916145b9050919050565b600260009054906101000a900473ffffffffffffffffffffffffffffffffffffffff1673ffffffffffffffffffffffffffffffffffffffff1663e8e253ca60018484346040518563ffffffff1660e01b815260040161053194939291906121d1565b600060405180830381600087803b15801561054b57600080fd5b505af115801561055f573d6000803e3d6000fd5b505050506105758261056f610957565b34610da0565b600360009054906101000a900473ffffffffffffffffffffffffffffffffffffffff1673ffffffffffffffffffffffffffffffffffffffff166362fa3d45836105bc610957565b6040518363ffffffff1660e01b81526004016105d992919061222b565b600060405180830381600087803b1580156105f357600080fd5b505af1158015610607573d6000803e3d6000fd5b505050505050565b600260009054906101000a900473ffffffffffffffffffffffffffffffffffffffff1673ffffffffffffffffffffffffffffffffffffffff1663e2baec4a600184846040518463ffffffff1660e01b815260040161066f939291906124cf565b600060405180830381600087803b15801561068957600080fd5b505af115801561069d573d6000803e3d6000fd5b505050506106ac838383610da5565b600360009054906101000a900473ffffffffffffffffffffffffffffffffffffffff1673ffffffffffffffffffffffffffffffffffffffff16636ec4d4cb84846106f4610957565b6040518463ffffffff1660e01b8152600401610712939291906125ca565b600060405180830381600087803b15801561072c57600080fd5b505af1158015610740573d6000803e3d6000fd5b50505050505050565b61075281610daa565b600360009054906101000a900473ffffffffffffffffffffffffffffffffffffffff1673ffffffffffffffffffffffffffffffffffffffff16634ada8076826040518263ffffffff1660e01b81526004016107ad919061260f565b600060405180830381600087803b1580156107c757600080fd5b505af11580156107db573d6000803e3d6000fd5b5050505050565b600260009054906101000a900473ffffffffffffffffffffffffffffffffffffffff1673ffffffffffffffffffffffffffffffffffffffff1663e2baec4a600184846040518463ffffffff1660e01b8152600401610842939291906124cf565b600060405180830381600087803b15801561085c57600080fd5b505af1158015610870573d6000803e3d6000fd5b5050505061087e8282610ddc565b600360009054906101000a900473ffffffffffffffffffffffffffffffffffffffff1673ffffffffffffffffffffffffffffffffffffffff1663a8e2812d836108c5610957565b6040518363ffffffff1660e01b81526004016108e2929190612631565b600060405180830381600087803b1580156108fc57600080fd5b505af1158015610910573d6000803e3d6000fd5b505050505050565b6001818154811061092857600080fd5b906000526020600020016000915054906101000a900473ffffffffffffffffffffffffffffffffffffffff1681565b600033905090565b606060018054806020026020016040519081016040528092919081815260200182805480156109e357602002820191906000526020600020905b8160009054906101000a900473ffffffffffffffffffffffffffffffffffffffff1673ffffffffffffffffffffffffffffffffffffffff1681526020019060010190808311610999575b5050505050905090565b600460009054906101000a900473ffffffffffffffffffffffffffffffffffffffff1681565b610a1c81610de0565b600360009054906101000a900473ffffffffffffffffffffffffffffffffffffffff1673ffffffffffffffffffffffffffffffffffffffff1663b75c7dc6826040518263ffffffff1660e01b8152600401610a779190612670565b600060405180830381600087803b158015610a9157600080fd5b505af1158015610aa5573d6000803e3d6000fd5b5050505050565b600260009054906101000a900473ffffffffffffffffffffffffffffffffffffffff1681565b6000600167ffffffffffffffff811115610aef57610aee610efd565b5b604051908082528060200260200182016040528015610b2257816020015b6060815260200190600190039081610b0d5790505b509050600060405180608001604052808460000151815260200184602001516040015167ffffffffffffffff16815260200133604051602001610b6591906126d3565b60405160208183030381529060405281526020018460200151600001516000015160200151604051602001610b9a9190612743565b6040516020818303038152906040528152509050826020015160000151836020015160200151604051602001610bd19291906128f2565b60405160208183030381529060405282600081518110610bf457610bf3612922565b5b6020026020010181905250610c0981836104cf565b505050565b600260009054906101000a900473ffffffffffffffffffffffffffffffffffffffff1673ffffffffffffffffffffffffffffffffffffffff1663e8e253ca60018484346040518563ffffffff1660e01b8152600401610c7094939291906121d1565b600060405180830381600087803b158015610c8a57600080fd5b505af1158015610c9e573d6000803e3d6000fd5b50505050610cb58383610caf610957565b34610e12565b600360009054906101000a900473ffffffffffffffffffffffffffffffffffffffff1673ffffffffffffffffffffffffffffffffffffffff16638ffa736b8484610cfd610957565b6040518463ffffffff1660e01b8152600401610d1b93929190612951565b600060405180830381600087803b158015610d3557600080fd5b505af1158015610d49573d6000803e3d6000fd5b50505050505050565b600360009054906101000a900473ffffffffffffffffffffffffffffffffffffffff1681565b5050565b60008054906101000a900473ffffffffffffffffffffffffffffffffffffffff1681565b505050565b505050565b6040517fd87b5d8d00000000000000000000000000000000000000000000000000000000815260040160405180910390fd5b5050565b6040517f23fa0d8e00000000000000000000000000000000000000000000000000000000815260040160405180910390fd5b50505050565b6000604051905090565b600080fd5b600080fd5b60007fffffffff0000000000000000000000000000000000000000000000000000000082169050919050565b610e6181610e2c565b8114610e6c57600080fd5b50565b600081359050610e7e81610e58565b92915050565b600060208284031215610e9a57610e99610e22565b5b6000610ea884828501610e6f565b91505092915050565b60008115159050919050565b610ec681610eb1565b82525050565b6000602082019050610ee16000830184610ebd565b92915050565b600080fd5b6000601f19601f8301169050919050565b7f4e487b7100000000000000000000000000000000000000000000000000000000600052604160045260246000fd5b610f3582610eec565b810181811067ffffffffffffffff82111715610f5457610f53610efd565b5b80604052505050565b6000610f67610e18565b9050610f738282610f2c565b919050565b600080fd5b6000819050919050565b610f9081610f7d565b8114610f9b57600080fd5b50565b600081359050610fad81610f87565b92915050565b600067ffffffffffffffff82169050919050565b610fd081610fb3565b8114610fdb57600080fd5b50565b600081359050610fed81610fc7565b92915050565b600080fd5b600080fd5b600067ffffffffffffffff82111561101857611017610efd565b5b61102182610eec565b9050602081019050919050565b82818337600083830152505050565b600061105061104b84610ffd565b610f5d565b90508281526020810184848401111561106c5761106b610ff8565b5b61107784828561102e565b509392505050565b600082601f83011261109457611093610ff3565b5b81356110a484826020860161103d565b91505092915050565b6000608082840312156110c3576110c2610ee7565b5b6110cd6080610f5d565b905060006110dd84828501610f9e565b60008301525060206110f184828501610fde565b602083015250604082013567ffffffffffffffff81111561111557611114610f78565b5b6111218482850161107f565b604083015250606082013567ffffffffffffffff81111561114557611144610f78565b5b6111518482850161107f565b60608301525092915050565b600067ffffffffffffffff82111561117857611177610efd565b5b602082029050602081019050919050565b600080fd5b60006111a161119c8461115d565b610f5d565b905080838252602082019050602084028301858111156111c4576111c3611189565b5b835b8181101561120b57803567ffffffffffffffff8111156111e9576111e8610ff3565b5b8086016111f6898261107f565b855260208501945050506020810190506111c6565b5050509392505050565b600082601f83011261122a57611229610ff3565b5b813561123a84826020860161118e565b91505092915050565b6000806040838503121561125a57611259610e22565b5b600083013567ffffffffffffffff81111561127857611277610e27565b5b611284858286016110ad565b925050602083013567ffffffffffffffff8111156112a5576112a4610e27565b5b6112b185828601611215565b9150509250929050565b600067ffffffffffffffff8211156112d6576112d5610efd565b5b602082029050602081019050919050565b60006112fa6112f5846112bb565b610f5d565b9050808382526020820190506020840283018581111561131d5761131c611189565b5b835b8181101561134657806113328882610f9e565b84526020840193505060208101905061131f565b5050509392505050565b600082601f83011261136557611364610ff3565b5b81356113758482602086016112e7565b91505092915050565b600067ffffffffffffffff82111561139957611398610efd565b5b602082029050602081019050919050565b60006113bd6113b88461137e565b610f5d565b905080838252602082019050602084028301858111156113e0576113df611189565b5b835b8181101561142757803567ffffffffffffffff81111561140557611404610ff3565b5b80860161141289826110ad565b855260208501945050506020810190506113e2565b5050509392505050565b600082601f83011261144657611445610ff3565b5b81356114568482602086016113aa565b91505092915050565b600067ffffffffffffffff82111561147a57611479610efd565b5b602082029050602081019050919050565b600061149e6114998461145f565b610f5d565b905080838252602082019050602084028301858111156114c1576114c0611189565b5b835b8181101561150857803567ffffffffffffffff8111156114e6576114e5610ff3565b5b8086016114f38982611215565b855260208501945050506020810190506114c3565b5050509392505050565b600082601f83011261152757611526610ff3565b5b813561153784826020860161148b565b91505092915050565b60008060006060848603121561155957611558610e22565b5b600084013567ffffffffffffffff81111561157757611576610e27565b5b61158386828701611350565b935050602084013567ffffffffffffffff8111156115a4576115a3610e27565b5b6115b086828701611431565b925050604084013567ffffffffffffffff8111156115d1576115d0610e27565b5b6115dd86828701611512565b9150509250925092565b6000602082840312156115fd576115fc610e22565b5b600082013567ffffffffffffffff81111561161b5761161a610e27565b5b61162784828501611350565b91505092915050565b6000806040838503121561164757611646610e22565b5b600083013567ffffffffffffffff81111561166557611664610e27565b5b61167185828601611431565b925050602083013567ffffffffffffffff81111561169257611691610e27565b5b61169e85828601611512565b9150509250929050565b6000819050919050565b6116bb816116a8565b81146116c657600080fd5b50565b6000813590506116d8816116b2565b92915050565b6000602082840312156116f4576116f3610e22565b5b6000611702848285016116c9565b91505092915050565b600073ffffffffffffffffffffffffffffffffffffffff82169050919050565b60006117368261170b565b9050919050565b6117468161172b565b82525050565b6000602082019050611761600083018461173d565b92915050565b600081519050919050565b600082825260208201905092915050565b6000819050602082019050919050565b61179c8161172b565b82525050565b60006117ae8383611793565b60208301905092915050565b6000602082019050919050565b60006117d282611767565b6117dc8185611772565b93506117e783611783565b8060005b838110156118185781516117ff88826117a2565b975061180a836117ba565b9250506001810190506117eb565b5085935050505092915050565b6000602082019050818103600083015261183f81846117c7565b905092915050565b6000819050919050565b600061186c6118676118628461170b565b611847565b61170b565b9050919050565b600061187e82611851565b9050919050565b600061189082611873565b9050919050565b6118a081611885565b82525050565b60006020820190506118bb6000830184611897565b92915050565b6000602082840312156118d7576118d6610e22565b5b60006118e584828501610f9e565b91505092915050565b60006118f982611873565b9050919050565b611909816118ee565b82525050565b60006020820190506119246000830184611900565b92915050565b600067ffffffffffffffff82111561194557611944610efd565b5b61194e82610eec565b9050602081019050919050565b600061196e6119698461192a565b610f5d565b90508281526020810184848401111561198a57611989610ff8565b5b61199584828561102e565b509392505050565b600082601f8301126119b2576119b1610ff3565b5b81356119c284826020860161195b565b91505092915050565b6000606082840312156119e1576119e0610ee7565b5b6119eb6060610f5d565b9050600082013567ffffffffffffffff811115611a0b57611a0a610f78565b5b611a178482850161199d565b600083015250602082013567ffffffffffffffff811115611a3b57611a3a610f78565b5b611a478482850161199d565b602083015250604082013567ffffffffffffffff811115611a6b57611a6a610f78565b5b611a778482850161199d565b60408301525092915050565b611a8c8161172b565b8114611a9757600080fd5b50565b600081359050611aa981611a83565b92915050565b600063ffffffff82169050919050565b611ac881611aaf565b8114611ad357600080fd5b50565b600081359050611ae581611abf565b92915050565b600060808284031215611b0157611b00610ee7565b5b611b0b6080610f5d565b90506000611b1b84828501610f9e565b6000830152506020611b2f84828501611a9a565b6020830152506040611b4384828501611ad6565b6040830152506060611b5784828501611ad6565b60608301525092915050565b600060a08284031215611b7957611b78610ee7565b5b611b836040610f5d565b90506000611b9384828501611aeb565b600083015250608082013567ffffffffffffffff811115611bb757611bb6610f78565b5b611bc384828501611215565b60208301525092915050565b600060408284031215611be557611be4610ee7565b5b611bef6040610f5d565b9050600082013567ffffffffffffffff811115611c0f57611c0e610f78565b5b611c1b848285016119cb565b600083015250602082013567ffffffffffffffff811115611c3f57611c3e610f78565b5b611c4b84828501611b63565b60208301525092915050565b600060608284031215611c6d57611c6c610ee7565b5b611c776060610f5d565b9050600082013567ffffffffffffffff811115611c9757611c96610f78565b5b611ca384828501611bcf565b6000830152506020611cb7848285016116c9565b6020830152506040611ccb84828501610fde565b60408301525092915050565b600060408284031215611ced57611cec610ee7565b5b611cf76040610f5d565b90506000611d0784828501610f9e565b600083015250602082013567ffffffffffffffff811115611d2b57611d2a610f78565b5b611d3784828501611c57565b60208301525092915050565b600060208284031215611d5957611d58610e22565b5b600082013567ffffffffffffffff811115611d7757611d76610e27565b5b611d8384828501611cd7565b91505092915050565b600080600060608486031215611da557611da4610e22565b5b6000611db386828701610f9e565b935050602084013567ffffffffffffffff811115611dd457611dd3610e27565b5b611de0868287016110ad565b925050604084013567ffffffffffffffff811115611e0157611e00610e27565b5b611e0d86828701611215565b9150509250925092565b6000611e2282611873565b9050919050565b611e3281611e17565b82525050565b6000602082019050611e4d6000830184611e29565b92915050565b6000611e5e8261170b565b9050919050565b611e6e81611e53565b8114611e7957600080fd5b50565b600081359050611e8b81611e65565b92915050565b60008060408385031215611ea857611ea7610e22565b5b6000611eb685828601611e7c565b9250506020611ec7858286016116c9565b9150509250929050565b6000611edc82611873565b9050919050565b611eec81611ed1565b82525050565b6000602082019050611f076000830184611ee3565b92915050565b600081549050919050565b60008190508160005260206000209050919050565b60008160001c9050919050565b600073ffffffffffffffffffffffffffffffffffffffff82169050919050565b6000611f6d611f6883611f2d565b611f3a565b9050919050565b6000611f808254611f5a565b9050919050565b6000600182019050919050565b6000611f9f82611f0d565b611fa98185611772565b9350611fb483611f18565b8060005b83811015611fec57611fc982611f74565b611fd388826117a2565b9750611fde83611f87565b925050600181019050611fb8565b5085935050505092915050565b61200281610f7d565b82525050565b61201181610fb3565b82525050565b600081519050919050565b600082825260208201905092915050565b60005b83811015612051578082015181840152602081019050612036565b60008484015250505050565b600061206882612017565b6120728185612022565b9350612082818560208601612033565b61208b81610eec565b840191505092915050565b60006080830160008301516120ae6000860182611ff9565b5060208301516120c16020860182612008565b50604083015184820360408601526120d9828261205d565b915050606083015184820360608601526120f3828261205d565b9150508091505092915050565b600081519050919050565b600082825260208201905092915050565b6000819050602082019050919050565b6000612138838361205d565b905092915050565b6000602082019050919050565b600061215882612100565b612162818561210b565b9350836020820285016121748561211c565b8060005b858110156121b05784840389528151612191858261212c565b945061219c83612140565b925060208a01995050600181019050612178565b50829750879550505050505092915050565b6121cb816116a8565b82525050565b600060808201905081810360008301526121eb8187611f94565b905081810360208301526121ff8186612096565b90508181036040830152612213818561214d565b905061222260608301846121c2565b95945050505050565b600060408201905081810360008301526122458185612096565b9050612254602083018461173d565b9392505050565b600081519050919050565b600082825260208201905092915050565b6000819050602082019050919050565b600060808301600083015161229f6000860182611ff9565b5060208301516122b26020860182612008565b50604083015184820360408601526122ca828261205d565b915050606083015184820360608601526122e4828261205d565b9150508091505092915050565b60006122fd8383612287565b905092915050565b6000602082019050919050565b600061231d8261225b565b6123278185612266565b93508360208202850161233985612277565b8060005b85811015612375578484038952815161235685826122f1565b945061236183612305565b925060208a0199505060018101905061233d565b50829750879550505050505092915050565b600081519050919050565b600082825260208201905092915050565b6000819050602082019050919050565b600082825260208201905092915050565b60006123cf82612100565b6123d981856123b3565b9350836020820285016123eb8561211c565b8060005b858110156124275784840389528151612408858261212c565b945061241383612140565b925060208a019950506001810190506123ef565b50829750879550505050505092915050565b600061244583836123c4565b905092915050565b6000602082019050919050565b600061246582612387565b61246f8185612392565b935083602082028501612481856123a3565b8060005b858110156124bd578484038952815161249e8582612439565b94506124a98361244d565b925060208a01995050600181019050612485565b50829750879550505050505092915050565b600060608201905081810360008301526124e98186611f94565b905081810360208301526124fd8185612312565b90508181036040830152612511818461245a565b9050949350505050565b600081519050919050565b600082825260208201905092915050565b6000819050602082019050919050565b60006125538383611ff9565b60208301905092915050565b6000602082019050919050565b60006125778261251b565b6125818185612526565b935061258c83612537565b8060005b838110156125bd5781516125a48882612547565b97506125af8361255f565b925050600181019050612590565b5085935050505092915050565b600060608201905081810360008301526125e4818661256c565b905081810360208301526125f88185612312565b9050612607604083018461173d565b949350505050565b60006020820190508181036000830152612629818461256c565b905092915050565b6000604082019050818103600083015261264b8185612312565b905061265a602083018461173d565b9392505050565b61266a81610f7d565b82525050565b60006020820190506126856000830184612661565b92915050565b60008160601b9050919050565b60006126a38261268b565b9050919050565b60006126b582612698565b9050919050565b6126cd6126c88261172b565b6126aa565b82525050565b60006126df82846126bc565b60148201915081905092915050565b600081519050919050565b600082825260208201905092915050565b6000612715826126ee565b61271f81856126f9565b935061272f818560208601612033565b61273881610eec565b840191505092915050565b6000602082019050818103600083015261275d818461270a565b905092915050565b600082825260208201905092915050565b6000612781826126ee565b61278b8185612765565b935061279b818560208601612033565b6127a481610eec565b840191505092915050565b600060608301600083015184820360008601526127cc8282612776565b915050602083015184820360208601526127e68282612776565b915050604083015184820360408601526128008282612776565b9150508091505092915050565b61281681611aaf565b82525050565b6080820160008201516128326000850182611ff9565b5060208201516128456020850182611793565b506040820151612858604085018261280d565b50606082015161286b606085018261280d565b50505050565b600060a083016000830151612889600086018261281c565b50602083015184820360808601526128a182826123c4565b9150508091505092915050565b600060408301600083015184820360008601526128cb82826127af565b915050602083015184820360208601526128e58282612871565b9150508091505092915050565b6000604082019050818103600083015261290c81856128ae565b905061291b60208301846121c2565b9392505050565b7f4e487b7100000000000000000000000000000000000000000000000000000000600052603260045260246000fd5b60006060820190506129666000830186612661565b81810360208301526129788185612096565b9050612987604083018461173d565b94935050505056fea2646970667358221220b8266814d92a9404d76703ded88d495d6dd6deb8b2e81c37e84ff4211b92951864736f6c63430008130033",
  "linkReferences": {},
  "deployedLinkReferences": {}
}